{
  "contractName": "NFTMe",
  "abi": [
    {
      "inputs": [],
      "stateMutability": "nonpayable",
      "type": "constructor"
    },
    {
      "anonymous": false,
      "inputs": [
        {
          "indexed": true,
          "internalType": "address",
          "name": "owner",
          "type": "address"
        },
        {
          "indexed": true,
          "internalType": "address",
          "name": "approved",
          "type": "address"
        },
        {
          "indexed": true,
          "internalType": "uint256",
          "name": "tokenId",
          "type": "uint256"
        }
      ],
      "name": "Approval",
      "type": "event"
    },
    {
      "anonymous": false,
      "inputs": [
        {
          "indexed": true,
          "internalType": "address",
          "name": "owner",
          "type": "address"
        },
        {
          "indexed": true,
          "internalType": "address",
          "name": "operator",
          "type": "address"
        },
        {
          "indexed": false,
          "internalType": "bool",
          "name": "approved",
          "type": "bool"
        }
      ],
      "name": "ApprovalForAll",
      "type": "event"
    },
    {
      "anonymous": false,
      "inputs": [
        {
          "indexed": true,
          "internalType": "address",
          "name": "from",
          "type": "address"
        },
        {
          "indexed": true,
          "internalType": "address",
          "name": "to",
          "type": "address"
        },
        {
          "indexed": true,
          "internalType": "uint256",
          "name": "tokenId",
          "type": "uint256"
        }
      ],
      "name": "Transfer",
      "type": "event"
    },
    {
      "inputs": [
        {
          "internalType": "address",
          "name": "to",
          "type": "address"
        },
        {
          "internalType": "uint256",
          "name": "tokenId",
          "type": "uint256"
        }
      ],
      "name": "approve",
      "outputs": [],
      "stateMutability": "nonpayable",
      "type": "function"
    },
    {
      "inputs": [
        {
          "internalType": "address",
          "name": "owner",
          "type": "address"
        }
      ],
      "name": "balanceOf",
      "outputs": [
        {
          "internalType": "uint256",
          "name": "",
          "type": "uint256"
        }
      ],
      "stateMutability": "view",
      "type": "function",
      "constant": true
    },
    {
      "inputs": [
        {
          "internalType": "uint256",
          "name": "tokenId",
          "type": "uint256"
        }
      ],
      "name": "getApproved",
      "outputs": [
        {
          "internalType": "address",
          "name": "",
          "type": "address"
        }
      ],
      "stateMutability": "view",
      "type": "function",
      "constant": true
    },
    {
      "inputs": [
        {
          "internalType": "address",
          "name": "owner",
          "type": "address"
        },
        {
          "internalType": "address",
          "name": "operator",
          "type": "address"
        }
      ],
      "name": "isApprovedForAll",
      "outputs": [
        {
          "internalType": "bool",
          "name": "",
          "type": "bool"
        }
      ],
      "stateMutability": "view",
      "type": "function",
      "constant": true
    },
    {
      "inputs": [],
      "name": "name",
      "outputs": [
        {
          "internalType": "string",
          "name": "",
          "type": "string"
        }
      ],
      "stateMutability": "view",
      "type": "function",
      "constant": true
    },
    {
      "inputs": [
        {
          "internalType": "uint256",
          "name": "tokenId",
          "type": "uint256"
        }
      ],
      "name": "ownerOf",
      "outputs": [
        {
          "internalType": "address",
          "name": "",
          "type": "address"
        }
      ],
      "stateMutability": "view",
      "type": "function",
      "constant": true
    },
    {
      "inputs": [
        {
          "internalType": "address",
          "name": "from",
          "type": "address"
        },
        {
          "internalType": "address",
          "name": "to",
          "type": "address"
        },
        {
          "internalType": "uint256",
          "name": "tokenId",
          "type": "uint256"
        }
      ],
      "name": "safeTransferFrom",
      "outputs": [],
      "stateMutability": "nonpayable",
      "type": "function"
    },
    {
      "inputs": [
        {
          "internalType": "address",
          "name": "from",
          "type": "address"
        },
        {
          "internalType": "address",
          "name": "to",
          "type": "address"
        },
        {
          "internalType": "uint256",
          "name": "tokenId",
          "type": "uint256"
        },
        {
          "internalType": "bytes",
          "name": "_data",
          "type": "bytes"
        }
      ],
      "name": "safeTransferFrom",
      "outputs": [],
      "stateMutability": "nonpayable",
      "type": "function"
    },
    {
      "inputs": [
        {
          "internalType": "address",
          "name": "operator",
          "type": "address"
        },
        {
          "internalType": "bool",
          "name": "approved",
          "type": "bool"
        }
      ],
      "name": "setApprovalForAll",
      "outputs": [],
      "stateMutability": "nonpayable",
      "type": "function"
    },
    {
      "inputs": [
        {
          "internalType": "bytes4",
          "name": "interfaceId",
          "type": "bytes4"
        }
      ],
      "name": "supportsInterface",
      "outputs": [
        {
          "internalType": "bool",
          "name": "",
          "type": "bool"
        }
      ],
      "stateMutability": "view",
      "type": "function",
      "constant": true
    },
    {
      "inputs": [],
      "name": "symbol",
      "outputs": [
        {
          "internalType": "string",
          "name": "",
          "type": "string"
        }
      ],
      "stateMutability": "view",
      "type": "function",
      "constant": true
    },
    {
      "inputs": [
        {
          "internalType": "uint256",
          "name": "tokenId",
          "type": "uint256"
        }
      ],
      "name": "tokenURI",
      "outputs": [
        {
          "internalType": "string",
          "name": "",
          "type": "string"
        }
      ],
      "stateMutability": "view",
      "type": "function",
      "constant": true
    },
    {
      "inputs": [
        {
          "internalType": "address",
          "name": "from",
          "type": "address"
        },
        {
          "internalType": "address",
          "name": "to",
          "type": "address"
        },
        {
          "internalType": "uint256",
          "name": "tokenId",
          "type": "uint256"
        }
      ],
      "name": "transferFrom",
      "outputs": [],
      "stateMutability": "nonpayable",
      "type": "function"
    },
    {
      "inputs": [
        {
          "internalType": "string",
          "name": "tokenURI",
          "type": "string"
        }
      ],
      "name": "mint",
      "outputs": [
        {
          "internalType": "uint256",
          "name": "",
          "type": "uint256"
        }
      ],
      "stateMutability": "nonpayable",
      "type": "function"
    },
    {
      "inputs": [
        {
          "internalType": "uint256",
          "name": "tokenId",
          "type": "uint256"
        }
      ],
      "name": "burn",
      "outputs": [],
      "stateMutability": "nonpayable",
      "type": "function"
    }
  ],
  "bytecode": "0x60806040523480156200001157600080fd5b506040518060400160405280600681526020017f4e46542d4d4500000000000000000000000000000000000000000000000000008152506040518060400160405280600581526020017f4e46544d45000000000000000000000000000000000000000000000000000000815250816000908051906020019062000096929190620000b8565b508060019080519060200190620000af929190620000b8565b505050620001cc565b828054620000c69062000197565b90600052602060002090601f016020900481019282620000ea576000855562000136565b82601f106200010557805160ff191683800117855562000136565b8280016001018555821562000136579182015b828111156200013557825182559160200191906001019062000118565b5b50905062000145919062000149565b5090565b5b80821115620001645760008160009055506001016200014a565b5090565b7f4e487b7100000000000000000000000000000000000000000000000000000000600052602260045260246000fd5b60006002820490506001821680620001b057607f821691505b602082108103620001c657620001c562000168565b5b50919050565b612e6880620001dc6000396000f3fe608060405234801561001057600080fd5b50600436106100f55760003560e01c80636352211e11610097578063b88d4fde11610066578063b88d4fde14610282578063c87b56dd1461029e578063d85d3d27146102ce578063e985e9c5146102fe576100f5565b80636352211e146101e857806370a082311461021857806395d89b4114610248578063a22cb46514610266576100f5565b8063095ea7b3116100d3578063095ea7b31461017857806323b872dd1461019457806342842e0e146101b057806342966c68146101cc576100f5565b806301ffc9a7146100fa57806306fdde031461012a578063081812fc14610148575b600080fd5b610114600480360381019061010f9190611b73565b61032e565b6040516101219190611bbb565b60405180910390f35b610132610410565b60405161013f9190611c6f565b60405180910390f35b610162600480360381019061015d9190611cc7565b6104a2565b60405161016f9190611d35565b60405180910390f35b610192600480360381019061018d9190611d7c565b610527565b005b6101ae60048036038101906101a99190611dbc565b61063e565b005b6101ca60048036038101906101c59190611dbc565b61069e565b005b6101e660048036038101906101e19190611cc7565b6106be565b005b61020260048036038101906101fd9190611cc7565b610740565b60405161020f9190611d35565b60405180910390f35b610232600480360381019061022d9190611e0f565b6107f1565b60405161023f9190611e4b565b60405180910390f35b6102506108a8565b60405161025d9190611c6f565b60405180910390f35b610280600480360381019061027b9190611e92565b61093a565b005b61029c60048036038101906102979190612007565b610950565b005b6102b860048036038101906102b39190611cc7565b6109b2565b6040516102c59190611c6f565b60405180910390f35b6102e860048036038101906102e3919061212b565b610b03565b6040516102f59190611e4b565b60405180910390f35b61031860048036038101906103139190612174565b610b3a565b6040516103259190611bbb565b60405180910390f35b60007f80ac58cd000000000000000000000000000000000000000000000000000000007bffffffffffffffffffffffffffffffffffffffffffffffffffffffff1916827bffffffffffffffffffffffffffffffffffffffffffffffffffffffff191614806103f957507f5b5e139f000000000000000000000000000000000000000000000000000000007bffffffffffffffffffffffffffffffffffffffffffffffffffffffff1916827bffffffffffffffffffffffffffffffffffffffffffffffffffffffff1916145b80610409575061040882610bce565b5b9050919050565b60606000805461041f906121e3565b80601f016020809104026020016040519081016040528092919081815260200182805461044b906121e3565b80156104985780601f1061046d57610100808354040283529160200191610498565b820191906000526020600020905b81548152906001019060200180831161047b57829003601f168201915b5050505050905090565b60006104ad82610c38565b6104ec576040517f08c379a00000000000000000000000000000000000000000000000000000000081526004016104e390612286565b60405180910390fd5b6004600083815260200190815260200160002060009054906101000a900473ffffffffffffffffffffffffffffffffffffffff169050919050565b600061053282610740565b90508073ffffffffffffffffffffffffffffffffffffffff168373ffffffffffffffffffffffffffffffffffffffff16036105a2576040517f08c379a000000000000000000000000000000000000000000000000000000000815260040161059990612318565b60405180910390fd5b8073ffffffffffffffffffffffffffffffffffffffff166105c1610ca4565b73ffffffffffffffffffffffffffffffffffffffff1614806105f057506105ef816105ea610ca4565b610b3a565b5b61062f576040517f08c379a0000000000000000000000000000000000000000000000000000000008152600401610626906123aa565b60405180910390fd5b6106398383610cac565b505050565b61064f610649610ca4565b82610d65565b61068e576040517f08c379a00000000000000000000000000000000000000000000000000000000081526004016106859061243c565b60405180910390fd5b610699838383610e43565b505050565b6106b983838360405180602001604052806000815250610950565b505050565b6106c781610740565b73ffffffffffffffffffffffffffffffffffffffff163373ffffffffffffffffffffffffffffffffffffffff1614610734576040517f08c379a000000000000000000000000000000000000000000000000000000000815260040161072b906124a8565b60405180910390fd5b61073d816110a9565b50565b6000806002600084815260200190815260200160002060009054906101000a900473ffffffffffffffffffffffffffffffffffffffff169050600073ffffffffffffffffffffffffffffffffffffffff168173ffffffffffffffffffffffffffffffffffffffff16036107e8576040517f08c379a00000000000000000000000000000000000000000000000000000000081526004016107df9061253a565b60405180910390fd5b80915050919050565b60008073ffffffffffffffffffffffffffffffffffffffff168273ffffffffffffffffffffffffffffffffffffffff1603610861576040517f08c379a0000000000000000000000000000000000000000000000000000000008152600401610858906125cc565b60405180910390fd5b600360008373ffffffffffffffffffffffffffffffffffffffff1673ffffffffffffffffffffffffffffffffffffffff168152602001908152602001600020549050919050565b6060600180546108b7906121e3565b80601f01602080910402602001604051908101604052809291908181526020018280546108e3906121e3565b80156109305780601f1061090557610100808354040283529160200191610930565b820191906000526020600020905b81548152906001019060200180831161091357829003601f168201915b5050505050905090565b61094c610945610ca4565b83836110fc565b5050565b61096161095b610ca4565b83610d65565b6109a0576040517f08c379a00000000000000000000000000000000000000000000000000000000081526004016109979061243c565b60405180910390fd5b6109ac84848484611268565b50505050565b60606109bd82610c38565b6109fc576040517f08c379a00000000000000000000000000000000000000000000000000000000081526004016109f39061265e565b60405180910390fd5b6000600660008481526020019081526020016000208054610a1c906121e3565b80601f0160208091040260200160405190810160405280929190818152602001828054610a48906121e3565b8015610a955780601f10610a6a57610100808354040283529160200191610a95565b820191906000526020600020905b815481529060010190602001808311610a7857829003601f168201915b505050505090506000610aa66112c4565b90506000815103610abb578192505050610afe565b600082511115610af0578082604051602001610ad89291906126ba565b60405160208183030381529060405292505050610afe565b610af9846112db565b925050505b919050565b6000610b0f6007611382565b6000610b1b6007611398565b9050610b2733826113a6565b610b31818461157f565b80915050919050565b6000600560008473ffffffffffffffffffffffffffffffffffffffff1673ffffffffffffffffffffffffffffffffffffffff16815260200190815260200160002060008373ffffffffffffffffffffffffffffffffffffffff1673ffffffffffffffffffffffffffffffffffffffff16815260200190815260200160002060009054906101000a900460ff16905092915050565b60007f01ffc9a7000000000000000000000000000000000000000000000000000000007bffffffffffffffffffffffffffffffffffffffffffffffffffffffff1916827bffffffffffffffffffffffffffffffffffffffffffffffffffffffff1916149050919050565b60008073ffffffffffffffffffffffffffffffffffffffff166002600084815260200190815260200160002060009054906101000a900473ffffffffffffffffffffffffffffffffffffffff1673ffffffffffffffffffffffffffffffffffffffff1614159050919050565b600033905090565b816004600083815260200190815260200160002060006101000a81548173ffffffffffffffffffffffffffffffffffffffff021916908373ffffffffffffffffffffffffffffffffffffffff160217905550808273ffffffffffffffffffffffffffffffffffffffff16610d1f83610740565b73ffffffffffffffffffffffffffffffffffffffff167f8c5be1e5ebec7d5bd14f71427d1e84f3dd0314c0f7b2291e5b200ac8c7c3b92560405160405180910390a45050565b6000610d7082610c38565b610daf576040517f08c379a0000000000000000000000000000000000000000000000000000000008152600401610da690612750565b60405180910390fd5b6000610dba83610740565b90508073ffffffffffffffffffffffffffffffffffffffff168473ffffffffffffffffffffffffffffffffffffffff161480610e2957508373ffffffffffffffffffffffffffffffffffffffff16610e11846104a2565b73ffffffffffffffffffffffffffffffffffffffff16145b80610e3a5750610e398185610b3a565b5b91505092915050565b8273ffffffffffffffffffffffffffffffffffffffff16610e6382610740565b73ffffffffffffffffffffffffffffffffffffffff1614610eb9576040517f08c379a0000000000000000000000000000000000000000000000000000000008152600401610eb0906127e2565b60405180910390fd5b600073ffffffffffffffffffffffffffffffffffffffff168273ffffffffffffffffffffffffffffffffffffffff1603610f28576040517f08c379a0000000000000000000000000000000000000000000000000000000008152600401610f1f90612874565b60405180910390fd5b610f338383836115f3565b610f3e600082610cac565b6001600360008573ffffffffffffffffffffffffffffffffffffffff1673ffffffffffffffffffffffffffffffffffffffff1681526020019081526020016000206000828254610f8e91906128c3565b925050819055506001600360008473ffffffffffffffffffffffffffffffffffffffff1673ffffffffffffffffffffffffffffffffffffffff1681526020019081526020016000206000828254610fe591906128f7565b92505081905550816002600083815260200190815260200160002060006101000a81548173ffffffffffffffffffffffffffffffffffffffff021916908373ffffffffffffffffffffffffffffffffffffffff160217905550808273ffffffffffffffffffffffffffffffffffffffff168473ffffffffffffffffffffffffffffffffffffffff167fddf252ad1be2c89b69c2b068fc378daa952ba7f163c4a11628f55a4df523b3ef60405160405180910390a46110a48383836115f8565b505050565b6110b2816115fd565b60006006600083815260200190815260200160002080546110d2906121e3565b9050146110f9576006600082815260200190815260200160002060006110f89190611a24565b5b50565b8173ffffffffffffffffffffffffffffffffffffffff168373ffffffffffffffffffffffffffffffffffffffff160361116a576040517f08c379a000000000000000000000000000000000000000000000000000000000815260040161116190612999565b60405180910390fd5b80600560008573ffffffffffffffffffffffffffffffffffffffff1673ffffffffffffffffffffffffffffffffffffffff16815260200190815260200160002060008473ffffffffffffffffffffffffffffffffffffffff1673ffffffffffffffffffffffffffffffffffffffff16815260200190815260200160002060006101000a81548160ff0219169083151502179055508173ffffffffffffffffffffffffffffffffffffffff168373ffffffffffffffffffffffffffffffffffffffff167f17307eab39ab6107e8899845ad3d59bd9653f200f220920489ca2b5937696c318360405161125b9190611bbb565b60405180910390a3505050565b611273848484610e43565b61127f8484848461171a565b6112be576040517f08c379a00000000000000000000000000000000000000000000000000000000081526004016112b590612a2b565b60405180910390fd5b50505050565b606060405180602001604052806000815250905090565b60606112e682610c38565b611325576040517f08c379a000000000000000000000000000000000000000000000000000000000815260040161131c90612abd565b60405180910390fd5b600061132f6112c4565b9050600081511161134f576040518060200160405280600081525061137a565b80611359846118a1565b60405160200161136a9291906126ba565b6040516020818303038152906040525b915050919050565b6001816000016000828254019250508190555050565b600081600001549050919050565b600073ffffffffffffffffffffffffffffffffffffffff168273ffffffffffffffffffffffffffffffffffffffff1603611415576040517f08c379a000000000000000000000000000000000000000000000000000000000815260040161140c90612b29565b60405180910390fd5b61141e81610c38565b1561145e576040517f08c379a000000000000000000000000000000000000000000000000000000000815260040161145590612b95565b60405180910390fd5b61146a600083836115f3565b6001600360008473ffffffffffffffffffffffffffffffffffffffff1673ffffffffffffffffffffffffffffffffffffffff16815260200190815260200160002060008282546114ba91906128f7565b92505081905550816002600083815260200190815260200160002060006101000a81548173ffffffffffffffffffffffffffffffffffffffff021916908373ffffffffffffffffffffffffffffffffffffffff160217905550808273ffffffffffffffffffffffffffffffffffffffff16600073ffffffffffffffffffffffffffffffffffffffff167fddf252ad1be2c89b69c2b068fc378daa952ba7f163c4a11628f55a4df523b3ef60405160405180910390a461157b600083836115f8565b5050565b61158882610c38565b6115c7576040517f08c379a00000000000000000000000000000000000000000000000000000000081526004016115be90612c27565b60405180910390fd5b806006600084815260200190815260200160002090805190602001906115ee929190611a64565b505050565b505050565b505050565b600061160882610740565b9050611616816000846115f3565b611621600083610cac565b6001600360008373ffffffffffffffffffffffffffffffffffffffff1673ffffffffffffffffffffffffffffffffffffffff168152602001908152602001600020600082825461167191906128c3565b925050819055506002600083815260200190815260200160002060006101000a81549073ffffffffffffffffffffffffffffffffffffffff021916905581600073ffffffffffffffffffffffffffffffffffffffff168273ffffffffffffffffffffffffffffffffffffffff167fddf252ad1be2c89b69c2b068fc378daa952ba7f163c4a11628f55a4df523b3ef60405160405180910390a4611716816000846115f8565b5050565b600061173b8473ffffffffffffffffffffffffffffffffffffffff16611a01565b15611894578373ffffffffffffffffffffffffffffffffffffffff1663150b7a02611764610ca4565b8786866040518563ffffffff1660e01b81526004016117869493929190612c9c565b6020604051808303816000875af19250505080156117c257506040513d601f19601f820116820180604052508101906117bf9190612cfd565b60015b611844573d80600081146117f2576040519150601f19603f3d011682016040523d82523d6000602084013e6117f7565b606091505b50600081510361183c576040517f08c379a000000000000000000000000000000000000000000000000000000000815260040161183390612a2b565b60405180910390fd5b805181602001fd5b63150b7a0260e01b7bffffffffffffffffffffffffffffffffffffffffffffffffffffffff1916817bffffffffffffffffffffffffffffffffffffffffffffffffffffffff191614915050611899565b600190505b949350505050565b6060600082036118e8576040518060400160405280600181526020017f300000000000000000000000000000000000000000000000000000000000000081525090506119fc565b600082905060005b6000821461191a57808061190390612d2a565b915050600a826119139190612da1565b91506118f0565b60008167ffffffffffffffff81111561193657611935611edc565b5b6040519080825280601f01601f1916602001820160405280156119685781602001600182028036833780820191505090505b5090505b600085146119f55760018261198191906128c3565b9150600a856119909190612dd2565b603061199c91906128f7565b60f81b8183815181106119b2576119b1612e03565b5b60200101907effffffffffffffffffffffffffffffffffffffffffffffffffffffffffffff1916908160001a905350600a856119ee9190612da1565b945061196c565b8093505050505b919050565b6000808273ffffffffffffffffffffffffffffffffffffffff163b119050919050565b508054611a30906121e3565b6000825580601f10611a425750611a61565b601f016020900490600052602060002090810190611a609190611aea565b5b50565b828054611a70906121e3565b90600052602060002090601f016020900481019282611a925760008555611ad9565b82601f10611aab57805160ff1916838001178555611ad9565b82800160010185558215611ad9579182015b82811115611ad8578251825591602001919060010190611abd565b5b509050611ae69190611aea565b5090565b5b80821115611b03576000816000905550600101611aeb565b5090565b6000604051905090565b600080fd5b600080fd5b60007fffffffff0000000000000000000000000000000000000000000000000000000082169050919050565b611b5081611b1b565b8114611b5b57600080fd5b50565b600081359050611b6d81611b47565b92915050565b600060208284031215611b8957611b88611b11565b5b6000611b9784828501611b5e565b91505092915050565b60008115159050919050565b611bb581611ba0565b82525050565b6000602082019050611bd06000830184611bac565b92915050565b600081519050919050565b600082825260208201905092915050565b60005b83811015611c10578082015181840152602081019050611bf5565b83811115611c1f576000848401525b50505050565b6000601f19601f8301169050919050565b6000611c4182611bd6565b611c4b8185611be1565b9350611c5b818560208601611bf2565b611c6481611c25565b840191505092915050565b60006020820190508181036000830152611c898184611c36565b905092915050565b6000819050919050565b611ca481611c91565b8114611caf57600080fd5b50565b600081359050611cc181611c9b565b92915050565b600060208284031215611cdd57611cdc611b11565b5b6000611ceb84828501611cb2565b91505092915050565b600073ffffffffffffffffffffffffffffffffffffffff82169050919050565b6000611d1f82611cf4565b9050919050565b611d2f81611d14565b82525050565b6000602082019050611d4a6000830184611d26565b92915050565b611d5981611d14565b8114611d6457600080fd5b50565b600081359050611d7681611d50565b92915050565b60008060408385031215611d9357611d92611b11565b5b6000611da185828601611d67565b9250506020611db285828601611cb2565b9150509250929050565b600080600060608486031215611dd557611dd4611b11565b5b6000611de386828701611d67565b9350506020611df486828701611d67565b9250506040611e0586828701611cb2565b9150509250925092565b600060208284031215611e2557611e24611b11565b5b6000611e3384828501611d67565b91505092915050565b611e4581611c91565b82525050565b6000602082019050611e606000830184611e3c565b92915050565b611e6f81611ba0565b8114611e7a57600080fd5b50565b600081359050611e8c81611e66565b92915050565b60008060408385031215611ea957611ea8611b11565b5b6000611eb785828601611d67565b9250506020611ec885828601611e7d565b9150509250929050565b600080fd5b600080fd5b7f4e487b7100000000000000000000000000000000000000000000000000000000600052604160045260246000fd5b611f1482611c25565b810181811067ffffffffffffffff82111715611f3357611f32611edc565b5b80604052505050565b6000611f46611b07565b9050611f528282611f0b565b919050565b600067ffffffffffffffff821115611f7257611f71611edc565b5b611f7b82611c25565b9050602081019050919050565b82818337600083830152505050565b6000611faa611fa584611f57565b611f3c565b905082815260208101848484011115611fc657611fc5611ed7565b5b611fd1848285611f88565b509392505050565b600082601f830112611fee57611fed611ed2565b5b8135611ffe848260208601611f97565b91505092915050565b6000806000806080858703121561202157612020611b11565b5b600061202f87828801611d67565b945050602061204087828801611d67565b935050604061205187828801611cb2565b925050606085013567ffffffffffffffff81111561207257612071611b16565b5b61207e87828801611fd9565b91505092959194509250565b600067ffffffffffffffff8211156120a5576120a4611edc565b5b6120ae82611c25565b9050602081019050919050565b60006120ce6120c98461208a565b611f3c565b9050828152602081018484840111156120ea576120e9611ed7565b5b6120f5848285611f88565b509392505050565b600082601f83011261211257612111611ed2565b5b81356121228482602086016120bb565b91505092915050565b60006020828403121561214157612140611b11565b5b600082013567ffffffffffffffff81111561215f5761215e611b16565b5b61216b848285016120fd565b91505092915050565b6000806040838503121561218b5761218a611b11565b5b600061219985828601611d67565b92505060206121aa85828601611d67565b9150509250929050565b7f4e487b7100000000000000000000000000000000000000000000000000000000600052602260045260246000fd5b600060028204905060018216806121fb57607f821691505b60208210810361220e5761220d6121b4565b5b50919050565b7f4552433732313a20617070726f76656420717565727920666f72206e6f6e657860008201527f697374656e7420746f6b656e0000000000000000000000000000000000000000602082015250565b6000612270602c83611be1565b915061227b82612214565b604082019050919050565b6000602082019050818103600083015261229f81612263565b9050919050565b7f4552433732313a20617070726f76616c20746f2063757272656e74206f776e6560008201527f7200000000000000000000000000000000000000000000000000000000000000602082015250565b6000612302602183611be1565b915061230d826122a6565b604082019050919050565b60006020820190508181036000830152612331816122f5565b9050919050565b7f4552433732313a20617070726f76652063616c6c6572206973206e6f74206f7760008201527f6e6572206e6f7220617070726f76656420666f7220616c6c0000000000000000602082015250565b6000612394603883611be1565b915061239f82612338565b604082019050919050565b600060208201905081810360008301526123c381612387565b9050919050565b7f4552433732313a207472616e736665722063616c6c6572206973206e6f74206f60008201527f776e6572206e6f7220617070726f766564000000000000000000000000000000602082015250565b6000612426603183611be1565b9150612431826123ca565b604082019050919050565b6000602082019050818103600083015261245581612419565b9050919050565b7f4f6e6c79206f776e65722063616e206275726e20746f6b656e00000000000000600082015250565b6000612492601983611be1565b915061249d8261245c565b602082019050919050565b600060208201905081810360008301526124c181612485565b9050919050565b7f4552433732313a206f776e657220717565727920666f72206e6f6e657869737460008201527f656e7420746f6b656e0000000000000000000000000000000000000000000000602082015250565b6000612524602983611be1565b915061252f826124c8565b604082019050919050565b6000602082019050818103600083015261255381612517565b9050919050565b7f4552433732313a2062616c616e636520717565727920666f7220746865207a6560008201527f726f206164647265737300000000000000000000000000000000000000000000602082015250565b60006125b6602a83611be1565b91506125c18261255a565b604082019050919050565b600060208201905081810360008301526125e5816125a9565b9050919050565b7f45524337323155524953746f726167653a2055524920717565727920666f722060008201527f6e6f6e6578697374656e7420746f6b656e000000000000000000000000000000602082015250565b6000612648603183611be1565b9150612653826125ec565b604082019050919050565b600060208201905081810360008301526126778161263b565b9050919050565b600081905092915050565b600061269482611bd6565b61269e818561267e565b93506126ae818560208601611bf2565b80840191505092915050565b60006126c68285612689565b91506126d28284612689565b91508190509392505050565b7f4552433732313a206f70657261746f7220717565727920666f72206e6f6e657860008201527f697374656e7420746f6b656e0000000000000000000000000000000000000000602082015250565b600061273a602c83611be1565b9150612745826126de565b604082019050919050565b600060208201905081810360008301526127698161272d565b9050919050565b7f4552433732313a207472616e736665722066726f6d20696e636f72726563742060008201527f6f776e6572000000000000000000000000000000000000000000000000000000602082015250565b60006127cc602583611be1565b91506127d782612770565b604082019050919050565b600060208201905081810360008301526127fb816127bf565b9050919050565b7f4552433732313a207472616e7366657220746f20746865207a65726f2061646460008201527f7265737300000000000000000000000000000000000000000000000000000000602082015250565b600061285e602483611be1565b915061286982612802565b604082019050919050565b6000602082019050818103600083015261288d81612851565b9050919050565b7f4e487b7100000000000000000000000000000000000000000000000000000000600052601160045260246000fd5b60006128ce82611c91565b91506128d983611c91565b9250828210156128ec576128eb612894565b5b828203905092915050565b600061290282611c91565b915061290d83611c91565b9250827fffffffffffffffffffffffffffffffffffffffffffffffffffffffffffffffff0382111561294257612941612894565b5b828201905092915050565b7f4552433732313a20617070726f766520746f2063616c6c657200000000000000600082015250565b6000612983601983611be1565b915061298e8261294d565b602082019050919050565b600060208201905081810360008301526129b281612976565b9050919050565b7f4552433732313a207472616e7366657220746f206e6f6e20455243373231526560008201527f63656976657220696d706c656d656e7465720000000000000000000000000000602082015250565b6000612a15603283611be1565b9150612a20826129b9565b604082019050919050565b60006020820190508181036000830152612a4481612a08565b9050919050565b7f4552433732314d657461646174613a2055524920717565727920666f72206e6f60008201527f6e6578697374656e7420746f6b656e0000000000000000000000000000000000602082015250565b6000612aa7602f83611be1565b9150612ab282612a4b565b604082019050919050565b60006020820190508181036000830152612ad681612a9a565b9050919050565b7f4552433732313a206d696e7420746f20746865207a65726f2061646472657373600082015250565b6000612b13602083611be1565b9150612b1e82612add565b602082019050919050565b60006020820190508181036000830152612b4281612b06565b9050919050565b7f4552433732313a20746f6b656e20616c7265616479206d696e74656400000000600082015250565b6000612b7f601c83611be1565b9150612b8a82612b49565b602082019050919050565b60006020820190508181036000830152612bae81612b72565b9050919050565b7f45524337323155524953746f726167653a2055524920736574206f66206e6f6e60008201527f6578697374656e7420746f6b656e000000000000000000000000000000000000602082015250565b6000612c11602e83611be1565b9150612c1c82612bb5565b604082019050919050565b60006020820190508181036000830152612c4081612c04565b9050919050565b600081519050919050565b600082825260208201905092915050565b6000612c6e82612c47565b612c788185612c52565b9350612c88818560208601611bf2565b612c9181611c25565b840191505092915050565b6000608082019050612cb16000830187611d26565b612cbe6020830186611d26565b612ccb6040830185611e3c565b8181036060830152612cdd8184612c63565b905095945050505050565b600081519050612cf781611b47565b92915050565b600060208284031215612d1357612d12611b11565b5b6000612d2184828501612ce8565b91505092915050565b6000612d3582611c91565b91507fffffffffffffffffffffffffffffffffffffffffffffffffffffffffffffffff8203612d6757612d66612894565b5b600182019050919050565b7f4e487b7100000000000000000000000000000000000000000000000000000000600052601260045260246000fd5b6000612dac82611c91565b9150612db783611c91565b925082612dc757612dc6612d72565b5b828204905092915050565b6000612ddd82611c91565b9150612de883611c91565b925082612df857612df7612d72565b5b828206905092915050565b7f4e487b7100000000000000000000000000000000000000000000000000000000600052603260045260246000fdfea26469706673582212206ba0517ec7087e8fa2c8d2c3b3c7bc3030f985436454c174344dea9def3a385464736f6c634300080d0033",
  "immutableReferences": {},
  "source": "// SPDX-License-Identifier: MIT\npragma solidity ^0.8.9;\n\nimport \"@openzeppelin/contracts/token/ERC721/ERC721.sol\";\nimport \"@openzeppelin/contracts/token/ERC721/extensions/ERC721URIStorage.sol\";\nimport \"@openzeppelin/contracts/utils/Counters.sol\";\n\ncontract NFTMe is ERC721URIStorage {\n    using Counters for Counters.Counter;\n    Counters.Counter private _tokenIds;\n\n    constructor() ERC721(\"NFT-ME\", \"NFTME\") {}\n\n    function mint(string memory tokenURI)\n        public\n        returns (uint256)\n    {\n        _tokenIds.increment();\n\n        uint256 newItemId = _tokenIds.current();\n        _mint(msg.sender, newItemId);\n        _setTokenURI(newItemId, tokenURI);\n\n        return newItemId;\n    }\n\n    function burn(uint256 tokenId)\n        public\n\n    {\n        require(msg.sender == ownerOf(tokenId), 'Only owner can burn token');\n        \n        _burn(tokenId);\n    }\n}",
  "sourcePath": "/Users/rhammell/Desktop/nft-me/Truffle/contracts/NFTMe.sol",
  "compiler": {
    "name": "solc",
    "version": "0.8.13+commit.abaa5c0e.Emscripten.clang"
  },
  "schemaVersion": "3.4.6",
  "updatedAt": "2022-04-01T14:28:03.395Z",
  "networkType": "ethereum",
  "devdoc": {
    "kind": "dev",
    "methods": {
      "approve(address,uint256)": {
        "details": "See {IERC721-approve}."
      },
      "balanceOf(address)": {
        "details": "See {IERC721-balanceOf}."
      },
      "getApproved(uint256)": {
        "details": "See {IERC721-getApproved}."
      },
      "isApprovedForAll(address,address)": {
        "details": "See {IERC721-isApprovedForAll}."
      },
      "name()": {
        "details": "See {IERC721Metadata-name}."
      },
      "ownerOf(uint256)": {
        "details": "See {IERC721-ownerOf}."
      },
      "safeTransferFrom(address,address,uint256)": {
        "details": "See {IERC721-safeTransferFrom}."
      },
      "safeTransferFrom(address,address,uint256,bytes)": {
        "details": "See {IERC721-safeTransferFrom}."
      },
      "setApprovalForAll(address,bool)": {
        "details": "See {IERC721-setApprovalForAll}."
      },
      "supportsInterface(bytes4)": {
        "details": "See {IERC165-supportsInterface}."
      },
      "symbol()": {
        "details": "See {IERC721Metadata-symbol}."
      },
      "tokenURI(uint256)": {
        "details": "See {IERC721Metadata-tokenURI}."
      },
      "transferFrom(address,address,uint256)": {
        "details": "See {IERC721-transferFrom}."
      }
    },
    "version": 1
  },
  "userdoc": {
    "kind": "user",
    "methods": {},
    "version": 1
  }
}